:100000000C945C000C9479000C9479000C947900A9
:100010000C9479000C9479000C9479000C9479007C
:100020000C9479000C9479000C9479000C9479006C
:100030000C9479000C9479000C9479000C9479005C
:100040000C9423010C9479000C9479000C947900A1
:100050000C9479000C9479000C9479000C9479003C
:100060000C9479000C947900000000080002010053
:100070000003040700000000000000000000000072
:10008000250028002B0000000000240027002A0083
:10009000040404040404040402020202020203032E
:1000A0000303030301020408102040800102040836
:1000B000102001020408102011241FBECFEFD8E049
:1000C000DEBFCDBF11E0A0E0B1E0EAE3F4E002C0A2
:1000D00005900D92A830B107D9F721E0A8E0B1E072
:1000E00001C01D92A231B207E1F70E946D010C948C
:1000F0001B020C94000090E0FC01E859FF4F349182
:10010000FC01EC55FF4F2491FC01E057FF4FE491B7
:10011000EE2309F43BC0332339F1333091F038F446
:100120003130A9F0323001F584B58F7D12C03730FF
:1001300091F03830A1F03430B9F4809180008F7D97
:1001400003C0809180008F77809380000DC084B5BC
:100150008F7784BD09C08091B0008F7703C08091F4
:10016000B0008F7D8093B000F0E0EE0FFF1FE458E9
:10017000FF4FA591B4918FB7F894EC91611103C032
:1001800020952E2301C02E2B2C938FBF08953FB7AF
:10019000F89480910D0190910E01A0910F01B09102
:1001A000100126B5A89B05C02F3F19F00196A11D8F
:1001B000B11D3FBFBA2FA92F982F8827820F911DFD
:1001C000A11DB11DBC01CD0142E0660F771F881F44
:1001D000991F4A95D1F708958F929F92AF92BF923F
:1001E000CF92DF92EF92FF920E94C7004B015C0119
:1001F00084E6C82ED12CE12CF12C0E94C700DC0132
:10020000CB0188199909AA09BB09883E9340A10529
:10021000B10558F021E0C21AD108E108F10888EED2
:10022000880E83E0981EA11CB11CC114D104E10406
:10023000F10419F7FF90EF90DF90CF90BF90AF904F
:100240009F908F9008951F920F920FB60F921124D6
:100250002F933F938F939F93AF93BF938091090107
:1002600090910A01A0910B01B0910C01309108010D
:1002700023E0230F2D3720F40196A11DB11D05C0E9
:1002800026E8230F0296A11DB11D2093080180933B
:10029000090190930A01A0930B01B0930C01809186
:1002A0000D0190910E01A0910F01B09110010196E6
:1002B000A11DB11D80930D0190930E01A0930F011C
:1002C000B0931001BF91AF919F918F913F912F916A
:1002D0000F900FBE0F901F901895789484B5826090
:1002E00084BD84B5816084BD85B5826085BD85B5DA
:1002F000816085BD80916E00816080936E00109258
:1003000081008091810082608093810080918100D2
:100310008160809381008091800081608093800063
:100320008091B10084608093B1008091B0008160C1
:100330008093B00080917A00846080937A008091ED
:100340007A00826080937A0080917A008160809345
:100350007A0080917A00806880937A001092C100C0
:1003600088E080931101C0E0D1E08091110190E01C
:100370009E0120503140281739073CF5DE01888165
:1003800090E0FC01EC55FF4F2491FC01E057FF4F3A
:1003900084918823A1F090E0880F991FFC01EA570F
:1003A000FF4F45915491FC01E458FF4F8591949182
:1003B0008FB7F894FA019081922B90838FBF21968A
:1003C00060E08C910E947B00D0CF80E0E82E80E03E
:1003D000F82E00E011E0C0911101D0E0C80180507A
:1003E00091408C179D0774F4F801C1918F0161E071
:1003F0008C2F0E947B000E94EC0060E08C2F0E94FA
:100400007B00E9CF21971C161D067CF4FE01E0500D
:10041000FF4F108161E0812F0E947B000E94EC0061
:1004200060E0812F0E947B00EDCFE114F10489F29E
:0A0430000E940000CECFF894FFCF29
:08043A0002030405060708098E
:00000001FF
